:020000040800F2
:1000000030040020450100089D0B0008950B0008F6
:10001000990B000853020008F911000800000000C5
:10002000000000000000000000000000690D000852
:100030006509000800000000310C0008E10E00080E
:100040005F0100085F0100085F0100085F01000810
:100050005F0100085F0100085F0100085F01000800
:100060005F0100085F0100085F0100085F010008F0
:100070005F0100085F0100085F0100085F010008E0
:100080005F0100085F0100085F0100085F010008D0
:10009000651100085F0100085F0100085F010008AA
:1000A0005F0100085F0100085F0100085F010008B0
:1000B0005F0100085F0100085F0100085F010008A0
:1000C0005F0100085F0100085F0100085F01000890
:1000D0005F0100085F0100085F0100085F01000880
:1000E0005F0100085F0100085F0100085F01000870
:1000F0005F0100085F0100085F0100085F01000860
:100100005F0100085F0100085F0100085F0100084F
:100110005F0100085F0100085F0100085F0100083F
:100120005F0100085F0100085F0100085F0100082F
:10013000DFF80CD000F05CF800480047B915000863
:10014000300400200648804706480047FEE7FEE7E7
:10015000FEE7FEE7FEE7FEE7FEE7FEE7FEE7FEE777
:10016000110F0008310100080649074A086850438A
:1001700043F23902104408604008704701490860A2
:1001800070470000280000206D4EC6412DE9F05F49
:100190000546002092469B468846064681464024F6
:1001A0001BE0284641464746224600F042F85346A7
:1001B0005A46C01A914110D311461846224600F003
:1001C00029F82D1A67EB01084F462246012000212D
:1001D00000F020F817EB00094E41201EA4F10104A5
:1001E000DFDC484631462A464346BDE8F09F000022
:1001F000064C074D06E0E06840F0010394E8070074
:1002000098471034AC42F6D3FFF796FF0419000864
:1002100024190008202A04DB203A00FA02F1002009
:1002200070479140C2F1200320FA03F31943904034
:100230007047202A04DB203A21FA02F0002170479F
:1002400021FA02F3D040C2F120029140084319463E
:10025000704700BFFEE70000B1F5007F3AD00FDC29
:10026000202928D006DC01291CD004291DD008290A
:1002700040D11DE0402921D0B1F5807F3AD126E060
:10028000B1F5004F31D006DCB1F5806F25D0B1F566
:10029000006F2FD124E0B1F5803F12D0B1F5003FBF
:1002A00028D111E0154A826025E00822C26022E0D0
:1002B0001022C2601FE0082202611CE010220261CD
:1002C00019E00822426016E01022426013E0042286
:1002D000426010E0042242600DE0042242600AE025
:1002E000002282610422426005E000228261042231
:1002F000426000E000BF00BF704700000101010044
:1003000000B587B000F04BFC00F02EFB224800F057
:1003100045F804A800F0F6F900208DF816008DF8D5
:1003200017008DF818008DF819008DF81A000120BB
:100330008DF81B0000208DF812008DF813000320AB
:100340008DF8140002208DF815002D20ADF8100056
:1003500004A9114800F0D7F800208DF80A008DF8A4
:100360000B0001208DF80C000020ADF80000ADF866
:100370000200ADF80400ADF80600ADF80800012059
:100380008DF80D0001220221034800F0B3F8684601
:1003900000F02CF807B000BD0064004010B5044622
:1003A0000B48844209D10121480600F053FC00218A
:1003B0004FF0007000F04EFC08E00121880600F0CC
:1003C00049FC00214FF0806000F044FC10BD0000AB
:1003D0000064004021B9C26842F02002C26003E01C
:1003E000026942F0200202617047000010B500214E
:1003F000837A012202FA03F13D4A126842F00102B7
:100400003B4B1A603A4A1C3212688A43384B1C3301
:100410001A60027BCAB9364A0C3212688A43344BDE
:100420000C331A604288C38842EA0343304A4032A0
:10043000847A42F834300288838842EA03432C4AA3
:100440004032847A02EBC4025360027B012A19D144
:10045000274A0C3212680A43254B0C331A60428833
:10046000038842EA0343224A4032847A42F8343015
:10047000C288838842EA03431D4A4032847A02EBF1
:10048000C4025360C27A3AB9194A121D12688A43EB
:10049000174B1B1D1A6006E0154A121D12680A430D
:1004A000134B1B1D1A60028932B9114A14321268AB
:1004B0008A430F4B14331A600289012A06D10C4A71
:1004C000143212680A430A4B14331A60427B012A21
:1004D00006D1074A1C3212680A43054B1C331A60C6
:1004E000034A126822F00102014B1A6010BD00009D
:1004F000006600401AB143690B43436102E043695F
:100500008B434361704730B50246002000231468D6
:1005100024F002041460146844F00104146000E044
:100520005B1C546804F001041CB94FF6FF74A3422D
:10053000F6D1546804F001040CB900206CE08C7909
:10054000012C04D1146844F08004146003E01468A2
:1005500024F080041460CC79012C04D1146844F098
:100560004004146003E0146824F0400414600C7A22
:10057000012C04D1146844F02004146003E01468D2
:1005800024F0200414604C7A012C04D1146844F047
:100590001004146003E0146824F0100414608C7AD2
:1005A000012C04D1146844F00804146003E01468BA
:1005B00024F008041460CC7A012C04D1146844F0AF
:1005C0000404146003E0146824F0040414608C78BC
:1005D000A407CD7844EA05640D7944EA05444D79D1
:1005E00044EA05540D886D1E2C43D461146824F030
:1005F00001041460002300E05B1C546804F0010453
:100600001CB14FF6FF74A342F6D1546804F0010404
:100610000CB1002000E0012030BD30B505460C468D
:10062000134605F5D87000EB0410006800F00400D4
:100630001872187A50B905F5D87000EB04100068EC
:1006400040F2FF7101EA5050186009E005F5D870DA
:1006500000EB041000686FF0604101EAD0005860C0
:1006600005F5D87000EB0410006800F00200587225
:1006700005F5D87000EB0410406800F00F00987288
:1006800005F5D87000EB04104068000AD87405F531
:10069000D87000EB04108068D87205F5D87000EBB4
:1006A00004108068010A197305F5D87000EB041076
:1006B0008068010C597305F5D87000EB0410806850
:1006C000000E987305F5D87000EB0410C068D8735D
:1006D00005F5D87000EB0410C068010A197405F51F
:1006E000D87000EB0410C068010C597405F5D8707F
:1006F00000EB0410C068000E987421462846FFF7EE
:1007000069FE30BD00218171C17101724172817237
:10071000C1728170C17003210171022141710121F7
:100720000180704710B502460020936803F0806393
:10073000B3F1806F00D110E0936803F00063B3F170
:10074000006F01D1012008E0936803F08053B3F1FA
:10075000805F01D1022000E00420042874D002F55B
:10076000C07303EB00131B6803F0010402F5C073B0
:1007700003EB00131C600B7A7BB94B7A0C8843EABD
:10078000445302F5C07404EB00142468234302F5BB
:10079000C07404EB0014236010E00B7A4C6843EA49
:1007A000C4034C7A234302F5C07404EB001424689C
:1007B000234302F5C07404EB001423608B7A03F02A
:1007C0000F038B7202F5C07303EB00135B6823F019
:1007D0000F0402F5C07303EB00135C6002F5C073F5
:1007E00003EB00135B688C7A234302F5C07404EBBF
:1007F000001463608B7B1C064B7B44EA03440B7B39
:1008000044EA0323CC7A234302F5C07404EB0014BA
:10081000A3608B7C1C064B7C44EA03440B7C44EABB
:100820000323CC7B234302F5C07404EB0014E36084
:1008300002F5C07303EB00131B6843F0010402F5DB
:10084000C07303EB00131C6010BD000010B586B030
:100850000446FFF789FCFF2190FBF1F201FB120037
:1008600037490870FFF780FCFF2190FBF1F201FB94
:10087000120034490870FFF777FCFF2190FBF1F27A
:1008800001FB120030490870FFF76EFCFF2190FB5E
:10089000F1F201FB12002D490870FFF765FCFF2102
:1008A00090FBF1F201FB120029490870FFF75CFC94
:1008B000FF2190FBF1F201FB120026490870FFF7BF
:1008C00053FCFF2190FBF1F201FB1200224908705A
:1008D000FFF74AFCFF2190FBF1F201FB12001F49D8
:1008E0000870019400208DF80D008DF80C00082090
:1008F0008DF80E00124800788DF80F00114801782D
:100900008DF81010104801788DF811100F480178FB
:100910008DF812100E4801788DF813100D480178EB
:100920008DF814100C4801788DF815100B480178DB
:100930008DF8161001A90A48FFF7F4FE06B010BDA5
:100940000200002003000020040000200500002019
:1009500006000020070000200800002009000020F9
:10096000006400407047000008B50121092000F034
:1009700081F90121212000F07DF90121480600F0D4
:1009800059F901214FF4EA1000F0B8F84FF48070E3
:10099000ADF8000003208DF8020004208DF803005C
:1009A00069460E4800F01EF84FF40070ADF80000E4
:1009B00018208DF803006946084800F013F8042059
:1009C000ADF8000003208DF8020010208DF8030020
:1009D0006946034800F006F808BD0000000C01401D
:1009E000001401402DE9F0410246002500260020B8
:1009F00000230024002791F803C00CF00F0591F8A4
:100A000003C00CF0100CBCF1000F03D091F802C031
:100A10004CEA050591F800C0BCF1000F31D0146814
:100A200000202BE04FF0010C0CFA00F3B1F800C0ED
:100A30000CEA03069E4220D183004FF00F0C0CFA03
:100A400003F7BC4305FA03FC4CEA040491F803C025
:100A5000BCF1280F06D14FF0010C0CFA00FCC2F8D3
:100A600014C00AE091F803C0BCF1480F05D14FF063
:100A7000010C0CFA00FCC2F810C0401C0828D1D3AD
:100A80001460B1F800C0BCF1FF0F34DD54680020E1
:100A90002EE000F1080C4FF0010808FA0CF3B1F851
:100AA00000C00CEA03069E4221D183004FF00F0CD8
:100AB0000CFA03F7BC4305FA03FC4CEA040491F872
:100AC00003C0BCF1280F05D100F1080C08FA0CF89E
:100AD000C2F8148091F803C0BCF1480F07D100F1AF
:100AE000080C4FF0010808FA0CF8C2F81080401CFE
:100AF0000828CED35460BDE8F0810000F0B50A4666
:100B0000002300240021002500F00046B6F1004F2C
:100B100002D11D4EF16901E01B4E7168C0F303451F
:100B200083B200F44016B6F5401F08D121F0706181
:100B3000154E766826F07066134F7E6012E000F462
:100B40008016B6F5801F06D1032606FA05F4A143E8
:100B500041F0706106E0460D360103FA06F6B14336
:100B600041F0706122B1460D360103FA06F63143B9
:100B700000F00046B6F1004F02D1034EF16101E0F2
:100B8000014E7160F0BD00000000014041617047FE
:100B90000161704700BFFEE700BFFEE7704708B580
:100BA00014208DF8000000208DF801008DF802005F
:100BB00001208DF80300684600F002F808BD00002F
:100BC00070B5002100230F22C47804B3154C2468AB
:100BD00004F4E064C4F5E064210AC1F10403CA40EE
:100BE000447804FA03F184781440214309010E4C3F
:100BF0000678A155047804F01F050124AC4005785F
:100C00006D11AD0005F1E025C5F8004109E004785B
:100C100004F01F050124AC40044D0678761145F818
:100C2000264070BD0CED00E000E400E080E100E053
:100C30007047000029B1064AD2690243044BDA61C9
:100C400004E0034AD2698243014BDA617047000035
:100C50000010024029B1064A12690243044B1A618E
:100C600004E0034A12698243014B1A617047000095
:100C70000010024029B1064A92690243044B9A616E
:100C800004E0034A92698243014B9A617047000075
:100C90000010024030B500210022002400232D4D19
:100CA0006D6805F00C0121B1042905D0082923D174
:100CB00005E0294D056022E0274D05601FE0254D28
:100CC0006D6805F47012234D6D6805F480340225BB
:100CD00005EB92421CB9214D554305600BE01D4DBB
:100CE0006D6805F400351DB11C4D5543056002E0EB
:100CF000194D5543056002E0174D056000BF00BF68
:100D0000144D6D6805F0F0010909154D6B5C05681F
:100D1000DD4045600F4D6D6805F4E061090A104D36
:100D20006B5C4568DD4085600A4D6D6805F4605177
:100D3000C90A0B4D6B5C4568DD40C560054D6D68AB
:100D400005F44041890B074D6B5CC568B5FBF3F5B5
:100D5000056130BD0010024000127A0000093D001C
:100D60001100002021000020704710B500F002F8AB
:100D700010BD00000CB500200190009033480068C1
:100D800040F480303149086000BF3048006800F40A
:100D9000003000900198401C0190009818B901980B
:100DA000B0F5A06FF1D12948006800F4003010B10F
:100DB0000120009001E0002000900098012843D11C
:100DC0002348006840F01000214908600846006888
:100DD00020F0030008600846006840F00200086048
:100DE0001A48406819494860084640684860084603
:100DF000406840F4806048600846406820F47C10F9
:100E000048600846406840F4E810486008460068BA
:100E100040F08070086000BF0C48006800F000706F
:100E20000028F9D00948406820F0030007494860CD
:100E30000846406840F00200486000BF0348406830
:100E400000F00C000828F9D10CBD00000010024091
:100E500000200240042808D14FF0E021096941F048
:100E600004014FF0E022116107E04FF0E021096931
:100E700021F004014FF0E02211617047012808D1F0
:100E80004FF0E021096941F001014FF0E0221161CA
:100E90000EE0811C41B94FF0E021096921F0010108
:100EA0004FF0E022116103E000214FF0E022916158
:100EB000704710B50146002200230020CB10022B02
:100EC00003D14FF0E024226902E04FF0E024E26910
:100ED00001248C4014400CB1012000E0002010BD22
:100EE000704740B14FF0E021096941F002014FF035
:100EF000E022116107E04FF0E021096921F00201D1
:100F00004FF0E022116170474FF0E02148617047D7
:100F100010B51348006840F0010011490860084608
:100F20004068104908400E494860084600680E496C
:100F300008400B4908600846006820F480200860DB
:100F40000846406820F4FE0048604FF41F008860A7
:100F5000FFF70BFF4FF000600449086010BD000070
:100F6000001002400000FFF8FFFFF6FE08ED00E071
:100F700021B1828942F40052828104E082894DF6D7
:100F8000FF731A408281704700B585B0012144F299
:100F90000400FFF76FFE4FF40070ADF8100018204A
:100FA0008DF8130003208DF8120004A91A48FFF7EA
:100FB00019FD4FF48060ADF8100004208DF8130087
:100FC00003208DF8120004A91348FFF70BFD4FF41E
:100FD000E13000900020ADF80400ADF80600ADF857
:100FE0000800ADF80C000C20ADF80A0069460B486B
:100FF00000F048F8012240F22551084800F01DF8A1
:10100000012240F22771054800F017F8012103483A
:10101000FFF7AEFF05B000BD0008014000380140F9
:1010200002460020B1F5007F00D100BF13880B40BD
:101030000BB1012000E000207047F0B5034600240A
:1010400000260025002040F66A17B94200D100BFF3
:101050001846C1F3421401F01F06012707FA06F5EE
:10106000012C01D10C3004E0022C01D1103000E041
:1010700014301AB107682F43076002E00768AF43D6
:101080000760F0BD2DE9F04786B005460E46002406
:10109000A24600BFA1460027B08900B100BF2F467D
:1010A0002C8A4CF6FF700440F08804432C82AC89F3
:1010B0004EF6F3100440B088318908437189084323
:1010C0000443AC81AC8A4FF6FF400440B08904432E
:1010D000AC8201A8FFF7DEFD1F48874202D1DDF890
:1010E00010A001E0DDF80CA0A88900F4004040B198
:1010F0000AEBCA0000EB0A1031684900B0FBF1F8B6
:1011000007E00AEBCA0000EB0A1031688900B0FB67
:10111000F1F86420B8FBF0F004012009642101FB20
:101120001089A88900F4004040B1322000EBC900CA
:10113000B0FBF1F000F00700044308E0322000EBC0
:1011400009106421B0FBF1F000F00F0004432C8182
:1011500006B0BDE8F087000000380140C1F3080286
:101160008280704700B585B06A4600211748FFF7B6
:1011700054FA1749009808809DF80B00154908702B
:101180009DF80C00144908709DF80D001349087073
:101190009DF80E00124908709DF80F001149087063
:1011A0009DF81000104908709DF811000F49087053
:1011B0009DF812000E49087002210448FFF74CF810
:1011C00001200C49087005B000BD0000006400401B
:1011D0000000002002000020030000200400002086
:1011E0000500002006000020070000200800002065
:1011F000090000200A00002000BFFEE70FB4054BE5
:1012000010B503A9044A029800F018F810BC5DF864
:1012100014FB0000951500082C00002002E008C80F
:10122000121F08C1002AFAD170477047002001E060
:1012300001C1121F002AFBD1704700002DE9FF4FAA
:101240008DB09B460F460446002606E025280BD0AD
:101250005A460F999047641C761C20780028F5D1D7
:1012600011B03046BDE8F08F0025A846012298490C
:1012700000E0054314F8013F203B02FA03F0084266
:10128000F7D120782E2817D114F8010F45F0040566
:101290002A280ED06FF02F022078A0F13001092902
:1012A0000AD808EB880102EB410100EB0108641C3D
:1012B000F2E757F8048B641C20786C280DD004DC0E
:1012C0004C2812D06A2811D104E074280DD07A2855
:1012D0000CD10AE045F4001507E0617845F480156B
:1012E000814202D1641C05F58015641C2278692AAC
:1012F00045D008DC002AB3D0582A69D0632A10D020
:10130000642A08D13BE0702A67D0732A13D0752A6B
:101310005CD0782A5CD010465A460F999047761CCC
:10132000D3E017F8040B8DF8000000208DF80100C1
:10133000E946012003E057F8049B4FF0FF306907AE
:101340004FF0000501D40AE06D1C45450DDA8542D9
:10135000FADB19F805100029F6D106E06D1C85426C
:10136000FCDB19F805100029F8D12E4404E019F827
:10137000010B5A460F9990476D1EF8D2A5E00A203E
:101380000021CDE90801C5F3025002280DD001CF9C
:10139000C117031E71F100030DDA4FF0000CD0EB02
:1013A0000C006CEB01012D2308E0FF1D27F007075F
:1013B000F7E80201EDE72B0504D52B238DF8283043
:1013C00001233BE0EB0739D02023F7E70A2000E0B8
:1013D00010200021CDE9080107E01020002145F090
:1013E0000405CDE908014FF00808C5F302500228B2
:1013F0000FD001CF00214FF0000A2B071FD5702A14
:101400000DD0DDE908C38CF0100C5CEA030C0CD0A5
:1014100015E0FF1D27F00707F7E80201EBE7402280
:101420008DF828204FF0010A0BE050EA010306D0A6
:1014300030238DF828308DF8292002239A46582A27
:1014400004D024A20DF120090B9209E026A2F9E7AD
:10145000DDE90823FEF79AFE0B9B9B5C09F8013D32
:1014600050EA0102F4D1ADEB090020300890680782
:1014700001D44FF001080899884502DDA8EB01006E
:1014800000E000208046002506E00AA85A46405D9C
:101490000F9990476D1C761C5545F6DB04E0302013
:1014A0005A460F999047761CB8F10001A8F101083F
:1014B000F5DC05E019F8010B5A460F999047761CA8
:1014C0000899481E08900029F4DC641CC5E6000059
:1014D000092801003031323334353637383961620A
:1014E00063646566000000003031323334353637CE
:1014F00038394142434445460000000000B585B0FC
:101500006846FFF7C7FB6FF00400FFF7A3FC00205D
:10151000FFF7E7FC07490198B0FBF1F006490870B6
:101520004FF4FA510198B0FBF1F00449088005B07E
:1015300000BD000000127A000C0000200E00002008
:1015400070B504461148008800FB04F5B5F1807FB2
:1015500001D36FF07F452846FFF7D6FC0020FFF748
:101560008DFC0120FFF78AFC00BF1020FFF7A1FCD3
:1015700007490870084600780128F6D1C01EFFF719
:101580007DFC0020FFF77AFC70BD00000E000020FB
:101590001000002070B504460D46E1B20548FFF783
:1015A000DDFD00BF40210348FFF73AFD0028F9D0D8
:1015B000204670BD00380140FFF7A0FFFEF7A0FEF7
:1015C000FFF7E2FC36A0FFF719FE3648FFF716FEDC
:1015D0003548FFF713FE3548FFF710FE3448FFF794
:1015E0000DFE3448FFF70AFE2E48FFF707FE32A033
:1015F000FFF704FE33A0FFF701FE4FE03648007806
:10160000012832D100203449087034A0FFF7F6FDDC
:101610003848018838A0FFF7F1FD3B4801783BA02E
:10162000FFF7ECFD3D4801783DA0FFF7E7FD40489E
:10163000017840A0FFF7E2FD4248017842A0FFF7A1
:10164000DDFD4548017845A0FFF7D8FD4748017802
:1016500047A0FFF7D3FD4A4801784AA0FFF7CEFD27
:101660004C4801784CA0FFF7C9FD4FF47A70FFF7A2
:1016700067FF4AF2A550FFF7E9F84B48007820B120
:1016800004214A48FFF782FA03E004214748FFF7A4
:101690007FFA45480078C04343490870AEE7000030
:1016A0000D0A0000C0180008B01700087C180008D8
:1016B000F41700083818000843414E20546573742D
:1016C000200D0A0043414E2053706565642031307F
:1016D000306B487A200D0A000A00002043414E205A
:1016E0006F64656272616E652064616E65200D0ACB
:1016F000000000000000002043414E204944202506
:1017000078200D0A000000000200002043414E5FD7
:101710004441544130202578200D0A000300002068
:1017200043414E5F4441544131202578200D0A0049
:101730000400002043414E5F44415441322025784B
:10174000200D0A000500002043414E5F44415441F2
:1017500033202578200D0A000600002043414E5F0B
:101760004441544134202578200D0A000700002010
:1017700043414E5F4441544135202578200D0A00F5
:101780000800002043414E5F4441544136202578F3
:10179000200D0A000900002043414E5F444154419E
:1017A00037202578200D0A000B000020001401408E
:1017B0002A20202053756E4455494E4F202020206A
:1017C0002020202020202020202020202020202019
:1017D0002020202020202020202020202020202009
:1017E000202020202020202020202020202A0D0A18
:1017F000000000002A202020555341525431202C53
:10180000203131353230306270732020202020208A
:1018100020202020202020202020202020202020C8
:1018200020202020202020202020202020202020B8
:10183000202A0D0A000000002A2020202D2D2D2016
:10184000666F72756D2E73756E6475696E6F2E702E
:101850006C2020202020202020202020202020203C
:101860002020202020202020202020202020202078
:1018700020202020202A0D0A000000002A202020FD
:10188000447A69656B756A65207A6120757A797723
:10189000616E69652053756E455642207A206D6FE2
:1018A00064756C656D2053554E2D3178785220202B
:1018B0005E5F5E2020202020202A0D0A000000000C
:1018C0002A2A2A2A2A2A2A2A2A2A2A2A2A2A2A2A78
:1018D0002A2A2A2A2A2A2A2A2A2A2A2A2A2A2A2A68
:1018E0002A2A2A2A2A2A2A2A2A2A2A2A2A2A2A2A58
:1018F0002A2A2A2A2A2A2A2A2A2A2A2A2A2A0D0A85
:101900000000000024190008000000203000000042
:101910001C120008541900083000002000040000C8
:101920002C12000800000000000000000000000071
:101930000000000000000000000102030401020397
:101940000406070809020406080000000000000061
:041950000000000093
:0400000508000131BD
:00000001FF
