:020000040800F2
:100000003804002045010008A9060008A1060008E0
:10001000A5060008A3040008F10B0008000000007A
:10002000000000000000000000000000C107000800
:10003000A704000800000000AB060008390900080A
:100040005F0100085F0100085F0100085F01000810
:100050005F0100085F0100085F0100085F01000800
:100060005F0100085F0100085F0100085F010008F0
:100070005F0100085F0100085F0100085F010008E0
:100080005F0100085F0100085F0100085F010008D0
:100090005F0100085F0100085F0100085F010008C0
:1000A0005F0100085F0100085F0100085F010008B0
:1000B0005F0100085F0100085F0100085F010008A0
:1000C0005F0100085F0100085F0100085F01000890
:1000D0005F0100085F0100085F0100085F01000880
:1000E0005F0100085F0100085F0100085F01000870
:1000F0005F0100085F0100085F0100085F01000860
:100100005F0100085F0100085F0100085F0100084F
:100110005F0100085F0100085F0100085F0100083F
:100120005F0100085F0100085F0100085F0100082F
:10013000DFF80CD000F0D8F800480047AD0C0008FC
:10014000380400200648804706480047FEE7FEE7DF
:10015000FEE7FEE7FEE7FEE7FEE7FEE7FEE7FEE777
:10016000690900083101000880EA010210B502F0B7
:100170000043400022D04A001FD0010E01EB126163
:10018000C0F35600C2F3560240F4000042F40002ED
:10019000A0FB022000047F39140400D0401C50EA68
:1001A000124001D44000491EC2B20C0604EBD0102C
:1001B000401C4008802A02D003E0002010BD20F03F
:1001C0000100002900DA0020184310BD30B480EA95
:1001D000010202F0004530F0004221F0004013D04F
:1001E00090B1C30DD40DC2F31601C0F31600E41A8A
:1001F00041F4000140F400027D34914201D3641CBB
:1002000000E04900002C02DA30BC002070474FF4B7
:1002100000000023914201D3891A034340084FEAAA
:100220004101F7D151B1914202D14FF0004105E0B7
:1002300002D24FF0010101E06FF0010103EBC45065
:10024000284430BC00F019B896230022114600F073
:100250001DB820F00040C10DC0F3160040F40000AE
:100260007F2901DA00207047962903DCC1F196014D
:10027000C84070479639884070470029A8BF70472A
:10028000401C490008BF20F00100704710B4B0FACC
:1002900080FC00FA0CF050EA010404BF10BC704767
:1002A00049B1CCF1200421FA04F411FA0CF118BF81
:1002B000012121430843A3EB0C01CB1D4FEA006150
:1002C0004FEA102042BF002010BC704700EBC35023
:1002D00010440029A4BF10BC7047401C490008BF4F
:1002E00020F0010010BC7047064C074D06E0E068A6
:1002F00040F0010394E8070098471034AC42F6D36D
:10030000FFF71AFF080D0008280D000821B18268C8
:1003100042F00102826003E0826822F00102826002
:100320007047000000B585B0012140F2012000F0C7
:10033000CDF90020009001208DF804008DF8050013
:100340004FF4602002900020039001208DF81000EF
:100350006946094800F016F80523012208210648DD
:1003600000F038F801210448FFF7D0FF01210248CE
:1003700000F08CF805B000BD002401400146C86CB7
:1003800080B2704730B502460020002350680F4C01
:1003900020400D790C6844EA0524204350609068A1
:1003A0000B4C2040D1E902542C434D7944EA4504DA
:1003B00020439060D06A20F470000C7C641EE4B28C
:1003C000234340EA0350D06230BD0000FFFEF0FF3F
:1003D000FDF7F1FFF0B504460D4600200021092D80
:1003E00011DDE068A5F10A0606EB4607072606FAC6
:1003F00007F18843A5F10A0606EB460603FA06F163
:100400000843E0600CE0206905EB4507072606FA83
:1004100007F1884305EB450603FA06F1084320611E
:10042000072A0FDA606B561E06EB86071F2606FAB0
:1004300007F18843561E06EB860605FA06F10843C7
:10044000606322E00D2A0FDA206BD61F06EB8607C9
:100450001F2606FA07F18843D61F06EB860605FA23
:1004600006F10843206310E0E06AA2F10D0606EBF6
:1004700086071F2606FA07F18843A2F10D0606EB50
:10048000860605FA06F10843E062F0BD21B18268F4
:1004900042F4A002826003E0826822F4A00282603B
:1004A000704700BFFEE7704708B50121092000F042
:1004B0000DF90120ADF8000000208DF803000320A5
:1004C0008DF8020069460A4800F016F82020ADF8C1
:1004D000000018208DF8030003208DF80200694603
:1004E000034800F009F80121024800F091F808BD26
:1004F000000C014000081A002DE9F04102460025D9
:100500000026002000230024002791F803C00CF0EF
:100510000F0591F803C00CF0100CBCF1000F03D0D4
:1005200091F802C04CEA050591F800C0BCF1000F3B
:1005300031D0146800202BE04FF0010C0CFA00F3CE
:10054000B1F800C00CEA03069E4220D183004FF0B0
:100550000F0C0CFA03F7BC4305FA03FC4CEA040445
:1005600091F803C0BCF1280F06D14FF0010C0CFA32
:1005700000FCC2F814C00AE091F803C0BCF1480FB7
:1005800005D14FF0010C0CFA00FCC2F810C0401C61
:100590000828D1D31460B1F800C0BCF1FF0F34DDDE
:1005A000546800202EE000F1080C4FF0010808FA12
:1005B0000CF3B1F800C00CEA03069E4221D183007F
:1005C0004FF00F0C0CFA03F7BC4305FA03FC4CEA9E
:1005D000040491F803C0BCF1280F05D100F1080C08
:1005E00008FA0CF8C2F8148091F803C0BCF1480F67
:1005F00007D100F1080C4FF0010808FA0CF8C2F816
:100600001080401C0828CED35460BDE8F081000063
:10061000F0B50A46002300240021002500F0004622
:10062000B6F1004F02D11D4EF16901E01B4E716819
:10063000C0F3034583B200F44016B6F5401F08D15D
:1006400021F07061154E766826F07066134F7E605B
:1006500012E000F48016B6F5801F06D1032606FAD4
:1006600005F4A14341F0706106E0460D360103FA3E
:1006700006F6B14341F0706122B1460D360103FA2E
:1006800006F6314300F00046B6F1004F02D1034EAA
:10069000F16101E0014E7160F0BD00000000014019
:1006A00000BFFEE700BFFEE77047704729B1064A6A
:1006B000D2690243044BDA6104E0034AD2698243FF
:1006C000014BDA61704700000010024029B1064A70
:1006D00092690243044B9A6104E0034A926982439F
:1006E000014B9A61704700000010024030B50021B4
:1006F0000022002400232D4D6D6805F00C0121B16E
:10070000042905D0082923D105E0294D056022E000
:10071000274D05601FE0254D6D6805F47012234DCF
:100720006D6805F48034022505EB92421CB9214D19
:10073000554305600BE01D4D6D6805F400351DB196
:100740001C4D5543056002E0194D5543056002E01C
:10075000174D056000BF00BF144D6D6805F0F00136
:100760000909154D6B5C0568DD4045600F4D6D68EE
:1007700005F4E061090A104D6B5C4568DD40856059
:100780000A4D6D6805F46051C90A0B4D6B5C4568F4
:10079000DD40C560054D6D6805F44041890B074D8E
:1007A0006B5CC568B5FBF3F5056130BD0010024018
:1007B00000127A0000093D000D0000201D000020FD
:1007C000704710B500F002F810BD00000CB5002015
:1007D000019000903348006840F48030314908604F
:1007E00000BF3048006800F4003000900198401CC1
:1007F0000190009818B90198B0F5A06FF1D129487F
:10080000006800F4003010B10120009001E00020E9
:1008100000900098012843D12348006840F0100060
:10082000214908600846006820F003000860084677
:10083000006840F0020008601A48406819494860A2
:100840000846406848600846406840F48060486058
:100850000846406820F47C1048600846406840F430
:10086000E81048600846006840F08070086000BFEB
:100870000C48006800F000700028F9D00948406872
:1008800020F00300074948600846406840F0020035
:10089000486000BF0348406800F00C000828F9D108
:1008A0000CBD00000010024000200240042808D1C6
:1008B0004FF0E021096941F004014FF0E02211619D
:1008C00007E04FF0E021096921F004014FF0E02238
:1008D00011617047012808D14FF0E021096941F00A
:1008E00001014FF0E02211610EE0811C41B94FF08F
:1008F000E021096921F001014FF0E022116103E0DC
:1009000000214FF0E0229161704710B501460022AE
:1009100000230020CB10022B03D14FF0E0242269EA
:1009200002E04FF0E024E26901248C4014400CB155
:10093000012000E0002010BD704740B14FF0E021E1
:10094000096941F002014FF0E022116107E04FF028
:10095000E021096921F002014FF0E02211617047A6
:100960004FF0E0214861704710B51348006840F02F
:1009700001001149086008464068104908400E49C6
:100980004860084600680E4908400B490860084660
:10099000006820F4802008600846406820F4FE00CB
:1009A00048604FF41F008860FFF70BFF4FF00060B6
:1009B0000449086010BD0000001002400000FFF86C
:1009C000FFFFF6FE08ED00E021B1028842F0800250
:1009D000028004E002884FF67F731A40028070475D
:1009E00021B1028842F00102028004E002884FF641
:1009F000FE731A400280704700B587B001210220C3
:100A0000FFF754FE1C4800681C49B0FBF1F0401E83
:100A10001B4908800020ADF81600ADF812008DF8D3
:100A2000180008460088ADF8100040F2E730ADF835
:100A3000140004A9134800F089F86020ADF8000004
:100A40000120ADF8020010480088ADF80600002033
:100A5000ADF8080069460B4800F018F8082109486D
:100A600000F066F801210748FFF7AEFF01210548B5
:100A7000FFF7B6FF07B000BD2400002040420F0082
:100A800004000020000400400600002070B500248F
:100A900000220023058C4FF6EF7635400584028C4A
:100AA0008388048B48F6FF752C404FF6FF452C4099
:100AB0000D884FF6FF7606EA05252C434FF6DF75C5
:100AC0002A400D8906EA05152A434D8806EA0515D0
:100AD0002A43154DA84202D0144DA8421DD14FF60D
:100AE0007F752A404D894FF6FF7606EA05152A43A1
:100AF0004FF6BF752A408D8806EA05152A434FF642
:100B0000FF352B404FF2FF752B408D8906EA850596
:100B10002B43CD8906EA85052B4383800483CD884A
:100B20000587028470BD0000002C014000340140A4
:100B30000A460021018B4FF2FF7319404FF6FF73F5
:100B400003EA022319430183704700000022028850
:100B50001D4B98420ED01D4B98420BD0B0F1804FE8
:100B600008D01B4B984205D01A4B984202D01A4B22
:100B7000984204D14FF68F731A404B881A43174B93
:100B8000984207D0164B984204D04FF6FF431A40C4
:100B9000CB881A4302808B8883850B8803850A4B98
:100BA00098420BD0094B984208D00E4B984205D082
:100BB0000D4B984202D00D4B984201D10B7A03861F
:100BC0000123838270470000002C01400034014063
:100BD0000004004000080040000C004000100040ED
:100BE0000014004000400140004401400048014022
:100BF00000BFFEE702E008C8121F08C1002AFAD1B0
:100C000070477047002001E001C1121F002AFBD18C
:100C10007047000000B585B06846FFF767FD6FF0CC
:100C20000400FFF743FE0020FFF787FE0749019805
:100C3000B0FBF1F0064908704FF4FA510198B0FB8F
:100C4000F1F00449088005B000BD000000127A00F0
:100C5000080000200A00002070B5044611480088F2
:100C600000FB04F5B5F1807F01D36FF07F45284686
:100C7000FFF776FE0020FFF72DFE0120FFF72AFE8A
:100C800000BF1020FFF741FE0749087008460078B2
:100C90000128F6D1C01EFFF71DFE0020FFF71AFE47
:100CA00070BD00000A0000200C000020FFF7FCFBD4
:100CB000FFF738FBFFF7AEFF1CE04FF47A70FFF749
:100CC000CBFF0D48FFF75AFB0446FFF7BDFA0B496F
:100CD00008604FF08B4109480068FFF777FA054636
:100CE0000749FFF741FA0446FFF7B3FA05490880C0
:100CF000FFF782FEE1E70000002401400000002031
:100D000000007A4406000020280D000800000020A2
:100D100038000000F40B0008600D000838000020C7
:100D200000040000040C00080000000000000000A7
:100D300000000000000000000001020304010203A3
:100D400004060708090204060800000000A24A047D
:100D5000000000000000000001020304060708096B
:0400000508000131BD
:00000001FF
