:020000040800F2
:1000000020040020450100086B0C0008630C000868
:10001000670C00088D0100080512000800000000B0
:10002000000000000000000000000000350E000885
:10003000590A000800000000FD0C0008210F00080C
:100040005F0100085F0100085F0100085F01000810
:100050005F0100085F0100085F0100085F01000800
:100060005F0100085F0100085F0100085F010008F0
:100070005F0100085F0100085F0100085F010008E0
:100080005F0100085F0100085F0100085F010008D0
:10009000951100085F0100085F0100085F0100087A
:1000A0005F0100085F0100085F0100085F010008B0
:1000B0005F0100085F0100085F0100085F010008A0
:1000C0005F0100085F0100085F0100085F01000890
:1000D0005F0100085F0100085F0100085F01000880
:1000E0005F0100085F0100085F0100085F01000870
:1000F0005F0100085F0100085F0100085F01000860
:100100005F0100085F0100085F0100085F0100084F
:100110005F0100085F0100085F0100085F0100083F
:100120005F0100085F0100085F0100085F0100082F
:10013000DFF80CD000F018F8004800477D120008E6
:10014000200400200648804706480047FEE7FEE7F7
:10015000FEE7FEE7FEE7FEE7FEE7FEE7FEE7FEE777
:10016000250F000831010008064C074D06E0E06845
:1001700040F0010394E8070098471034AC42F6D3EE
:10018000FFF7DAFF1C1500083C15000800BFFEE76A
:1001900010B504460B48844209D10121480600F0FD
:1001A000BFFD00214FF0007000F0BAFD08E0012112
:1001B000880600F0B5FD00214FF0806000F0B0FD32
:1001C00010BD00000064004021B9C26842F0200266
:1001D000C26003E0026942F0200202617047000041
:1001E00010B50021837A012202FA03F13D4A126818
:1001F00042F001023B4B1A603A4A1C3212688A43B1
:10020000384B1C331A60027BCAB9364A0C3212686A
:100210008A43344B0C331A604288C38842EA034352
:10022000304A4032847A42F834300288838842EA85
:1002300003432C4A4032847A02EBC4025360027BAF
:10024000012A19D1274A0C3212680A43254B0C3374
:100250001A604288038842EA0343224A4032847A81
:1002600042F83430C288838842EA03431D4A403250
:10027000847A02EBC4025360C27A3AB9194A121D59
:1002800012688A43174B1B1D1A6006E0154A121D9F
:1002900012680A43134B1B1D1A60028932B9114AB6
:1002A000143212688A430F4B14331A600289012AF0
:1002B00006D10C4A143212680A430A4B14331A60EE
:1002C000427B012A06D1074A1C3212680A43054BB9
:1002D0001C331A60034A126822F00102014B1A60B3
:1002E00010BD0000006600401AB143690B43436132
:1002F00002E043698B434361704730B502460020FA
:100300000023146824F002041460146844F001040B
:10031000146000E05B1C546804F001041CB94FF643
:10032000FF74A342F6D1546804F001040CB9002014
:100330006CE08C79012C04D1146844F080041460C2
:1003400003E0146824F080041460CC79012C04D1FB
:10035000146844F04004146003E0146824F040047E
:1003600014600C7A012C04D1146844F02004146049
:1003700003E0146824F0200414604C7A012C04D1AA
:10038000146844F01004146003E0146824F01004AE
:1003900014608C7A012C04D1146844F008041460B1
:1003A00003E0146824F008041460CC7A012C04D112
:1003B000146844F00404146003E0146824F0040496
:1003C00014608C78A407CD7844EA05640D7944EA7A
:1003D00005444D7944EA05540D886D1E2C43D461C3
:1003E000146824F001041460002300E05B1C5468CE
:1003F00004F001041CB14FF6FF74A342F6D1546817
:1004000004F001040CB1002000E0012030BD000028
:1004100010B58CB000243E48FFF7BAFE09A800F0E2
:100420009EF900208DF82A008DF82B008DF82C0005
:100430008DF82D008DF82E008DF82F0001208DF8FD
:10044000260000208DF8270007208DF828000620C0
:100450008DF829000120ADF8240009A92C48FFF7E8
:100460004CFF01208DF81E0000208DF81F00012098
:100470008DF820000020ADF81400ADF81600ADF89E
:100480001800ADF81A00ADF81C0001208DF821000D
:1004900005A8FFF7A5FE012202211D48FFF724FF52
:1004A0000020009041F23420019004208DF80800D3
:1004B00000208DF8090002208DF80A00DE208DF85A
:1004C0000B00CA218DF80C106946114800F057F94D
:1004D000FF201049086000BF00E0641C0D48006860
:1004E000FF2803D140F6FF708442F6D340F6FF7038
:1004F000844202D1002007490860002202210448FA
:10050000FFF7F2FE03480068C0B20CB010BD000057
:1005100000640040000000200246002019B9D368A2
:1005200003F0030006E0012903D1136903F003007F
:1005300000E000207047000030B591B00024002595
:100540004B48FFF725FE0EA800F009F900208DF8B2
:100550003E008DF83F008DF840008DF841008DF889
:1005600042008DF8430001208DF83A0000208DF8FC
:100570003B0007208DF83C0006208DF83D0005204B
:10058000ADF838000EA93A48FFF7B7FE00208DF805
:1005900032008DF8330001208DF834000020ADF8D2
:1005A0002800ADF82A00ADF82C00ADF82E00ADF80B
:1005B000300001208DF835000AA8FFF711FE112048
:1005C000059000208DF81D008DF81C0002208DF88C
:1005D0001E00CA208DF81F00FE2105A8017305A981
:1005E000234800F0CCF8054600BF00E0641C294613
:1005F0001F4800F057F9012801D0FF2CF6D1002444
:1006000000E0641C00211A48FFF786FF012801DA88
:10061000FF2CF6D1002000908DF808008DF80A001C
:100620008DF80B0000218DF80C106A46104800F080
:1006300021F80098112802D0002011B030BD9DF89B
:10064000080008B10020F8E79DF80A00022801D050
:100650000020F2E79DF80C009DF80B1040EA012005
:100660004CF6FE21884201D00020E6E70120E4E7B5
:100670000064004030B505460C46134605F5D870B9
:1006800000EB0410006800F004001872187A50B9EA
:1006900005F5D87000EB0410006840F2FF7101EA24
:1006A0005050186009E005F5D87000EB04100068A0
:1006B0006FF0604101EAD000586005F5D87000EB9A
:1006C0000410006800F00200587205F5D87000EBC5
:1006D0000410406800F00F00987205F5D87000EB28
:1006E00004104068000AD87405F5D87000EB0410B7
:1006F0008068D87205F5D87000EB04108068010A94
:10070000197305F5D87000EB04108068010C59735B
:1007100005F5D87000EB04108068000E987305F59D
:10072000D87000EB0410C068D87305F5D87000EBE2
:100730000410C068010A197405F5D87000EB0410A4
:10074000C068010C597405F5D87000EB0410C0683E
:10075000000E987421462846FFF736FD30BD002173
:100760008171C171017241728172C1728170C170F7
:10077000032101710221417101210180704710B5EF
:1007800002460020936803F08063B3F1806F00D1CC
:1007900010E0936803F00063B3F1006F01D1012012
:1007A00008E0936803F08053B3F1805F01D1022029
:1007B00000E00420042874D002F5C07303EB00139A
:1007C0001B6803F0010402F5C07303EB00131C6007
:1007D0000B7A7BB94B7A0C8843EA445302F5C07418
:1007E00004EB00142468234302F5C07404EB0014E6
:1007F000236010E00B7A4C6843EAC4034C7A23432D
:1008000002F5C07404EB00142468234302F5C0749D
:1008100004EB001423608B7A03F00F038B7202F554
:10082000C07303EB00135B6823F00F0402F5C07381
:1008300003EB00135C6002F5C07303EB00135B680D
:100840008C7A234302F5C07404EB001463608B7B45
:100850001C064B7B44EA03440B7B44EA0323CC7A1B
:10086000234302F5C07404EB0014A3608B7C1C06C8
:100870004B7C44EA03440B7C44EA0323CC7B2343B4
:1008800002F5C07404EB0014E36002F5C07303EBDF
:1008900000131B6843F0010402F5C07303EB00135F
:1008A0001C6010BD0246002021B1012910D0022990
:1008B0002CD11CE0936803F0010340EA83009368A5
:1008C00003F0020318439368C3F3806318431FE0E7
:1008D000936803F4807340EA9310936803F4007301
:1008E00040EA13209368C3F3C063184310E0936891
:1008F00003F4803340EA9330936803F4003340EA12
:1009000013409368C3F30073184301E0002000BF55
:1009100000BF20B1052804D0072806D103E002203B
:1009200005E0002003E0012001E0002000BF00BF3F
:100930007047000038B500240121082000F0E0F9DC
:100940004FF40070ADF8000003208DF80200102075
:100950008DF8030069462A4800F0A2F84FF4807031
:10096000ADF8000003208DF8020004208DF803008C
:100970006946234800F094F822A000F045FC4FF4AB
:1009800000711F4800F06BF9234800F066F84FF43F
:1009900080711B4800F058F900B901244FF4007130
:1009A000174800F05AF91C4800F057F84FF48071CE
:1009B000134800F049F900B101244FF48070ADF8FC
:1009C000000003208DF8020004208DF80300694622
:1009D0000B4800F065F84FF40070ADF800001820E7
:1009E0008DF803006946064800F05AF8012C03D13F
:1009F0000AA000F009FC02E010A000F005FC38BDE0
:100A0000000C01400D0A20534E363548564432330F
:100A100030200D0A00000000FFFF1F0050726F62BF
:100A20006C656D207A207472616E736D6974657285
:100A3000656D2043414E200D0A00000043414E20C9
:100A400070726163756A65207072617769646C6F3A
:100A5000776F2021200D0A00704700E0401E00281B
:100A6000FCD1704708B50121092000F069F9012186
:100A7000480600F045F94FF40070ADF8000018206A
:100A80008DF8030003208DF802006946034800F04A
:100A900007F80121880300F08FF808BD000C014021
:100AA0002DE9F04102460025002600200023002405
:100AB000002791F803C00CF00F0591F803C00CF06B
:100AC000100CBCF1000F03D091F802C04CEA0505F0
:100AD00091F800C0BCF1000F31D0146800202BE069
:100AE0004FF0010C0CFA00F3B1F800C00CEA030659
:100AF0009E4220D183004FF00F0C0CFA03F7BC4349
:100B000005FA03FC4CEA040491F803C0BCF1280F79
:100B100006D14FF0010C0CFA00FCC2F814C00AE038
:100B200091F803C0BCF1480F05D14FF0010C0CFA4D
:100B300000FCC2F810C0401C0828D1D31460B1F8E2
:100B400000C0BCF1FF0F34DD546800202EE000F13E
:100B5000080C4FF0010808FA0CF3B1F800C00CEAD9
:100B600003069E4221D183004FF00F0C0CFA03F7CD
:100B7000BC4305FA03FC4CEA040491F803C0BCF141
:100B8000280F05D100F1080C08FA0CF8C2F81480FF
:100B900091F803C0BCF1480F07D100F1080C4FF0E9
:100BA000010808FA0CF8C2F81080401C0828CED3BF
:100BB0005460BDE8F0810000F0B50A46002300242F
:100BC0000021002500F00046B6F1004F02D11D4E75
:100BD000F16901E01B4E7168C0F3034583B200F474
:100BE0004016B6F5401F08D121F07061154E7668A9
:100BF00026F07066134F7E6012E000F48016B6F5A2
:100C0000801F06D1032606FA05F4A14341F0706166
:100C100006E0460D360103FA06F6B14341F0706175
:100C200022B1460D360103FA06F6314300F00046C4
:100C3000B6F1004F02D1034EF16101E0014E716047
:100C4000F0BD0000000001400246002093680B4008
:100C50000BB1012000E00020704741617047016145
:100C6000704700BFFEE700BFFEE7704708B51420DD
:100C70008DF8000000208DF801008DF802000120A1
:100C80008DF80300684600F001F808BD70B500213A
:100C900000230F22C47804B3154C246804F4E064E4
:100CA000C4F5E064210AC1F10403CA40447804FA9F
:100CB00003F184781440214309010E4C0678A155B4
:100CC000047804F01F050124AC4005786D11AD00D7
:100CD00005F1E025C5F8004109E0047804F01F059E
:100CE0000124AC40044D0678761145F8264070BDCD
:100CF0000CED00E000E400E080E100E0704700005F
:100D000029B1064AD2690243044BDA6104E0034A7E
:100D1000D2698243014BDA61704700000010024043
:100D200029B1064A12690243044B1A6104E0034ADE
:100D300012698243014B1A617047000000100240A3
:100D400029B1064A92690243044B9A6104E0034ABE
:100D500092698243014B9A61704700000010024083
:100D600030B500210022002400232D4D6D6805F0D0
:100D70000C0121B1042905D0082923D105E0294D12
:100D8000056022E0274D05601FE0254D6D6805F4E4
:100D90007012234D6D6805F48034022505EB9242F4
:100DA0001CB9214D554305600BE01D4D6D6805F4E0
:100DB00000351DB11C4D5543056002E0194D5543EA
:100DC000056002E0174D056000BF00BF144D6D685F
:100DD00005F0F0010909154D6B5C0568DD404560C3
:100DE0000F4D6D6805F4E061090A104D6B5C4568B4
:100DF000DD4085600A4D6D6805F46051C90A0B4DF0
:100E00006B5C4568DD40C560054D6D6805F440418B
:100E1000890B074D6B5CC568B5FBF3F5056130BD0B
:100E20000010024000127A0000093D00040000207A
:100E300014000020704710B500F002F810BD00004B
:100E40000CB50020019000903348006840F48030D9
:100E50003149086000BF3048006800F4003000905D
:100E60000198401C0190009818B90198B0F5A06F46
:100E7000F1D12948006800F4003010B10120009041
:100E800001E0002000900098012843D12348006829
:100E900040F01000214908600846006820F0030077
:100EA00008600846006840F0020008601A48406880
:100EB000194948600846406848600846406840F460
:100EC000806048600846406820F47C10486008460E
:100ED000406840F4E81048600846006840F08070C0
:100EE000086000BF0C48006800F000700028F9D0CE
:100EF0000948406820F003000749486008464068F8
:100F000040F00200486000BF0348406800F00C0059
:100F10000828F9D10CBD000000100240002002405A
:100F20007047000010B51348006840F001001149F7
:100F3000086008464068104908400E494860084665
:100F400000680E4908400B4908600846006820F414
:100F5000802008600846406820F4FE0048604FF496
:100F60001F008860FFF767FF4FF0006004490860CA
:100F700010BD0000001002400000FFF8FFFFF6FE69
:100F800008ED00E001F40072B2F5007F00D100BF6F
:100F9000CA430280704721B1828942F400528281A3
:100FA00004E082894DF6FF731A4082817047000089
:100FB00000B585B0012144F20400FFF7C1FE4FF4F3
:100FC0000070ADF8100018208DF8130003208DF884
:100FD000120004A91C48FFF763FD4FF48060ADF8D0
:100FE000100004208DF8130003208DF8120004A9CE
:100FF0001548FFF755FD4FF4E13000900020ADF8A3
:101000000400ADF80600ADF80800ADF80C000C20A7
:10101000ADF80A0069460D4800F04CF8012240F294
:1010200025510A4800F021F8012240F227710748B3
:1010300000F01BF840210548FFF7A4FF01210348F9
:10104000FFF7A9FF05B000BD0008014000380140CE
:1010500002460020B1F5007F00D100BF13880B408D
:101060000BB1012000E000207047F0B503460024DA
:1010700000260025002040F66A17B94200D100BFC3
:101080001846C1F3421401F01F06012707FA06F5BE
:10109000012C01D10C3004E0022C01D1103000E011
:1010A00014301AB107682F43076002E00768AF43A6
:1010B0000760F0BD2DE9F04786B005460E460024D6
:1010C000A24600BFA1460027B08900B100BF2F464D
:1010D0002C8A4CF6FF700440F08804432C82AC89C3
:1010E0004EF6F3100440B0883189084371890843F3
:1010F0000443AC81AC8A4FF6FF400440B0890443FE
:10110000AC8201A8FFF72CFE1F48874202D1DDF810
:1011100010A001E0DDF80CA0A88900F4004040B167
:101120000AEBCA0000EB0A1031684900B0FBF1F885
:1011300007E00AEBCA0000EB0A1031688900B0FB37
:10114000F1F86420B8FBF0F004012009642101FBF0
:101150001089A88900F4004040B1322000EBC9009A
:10116000B0FBF1F000F00700044308E0322000EB90
:1011700009106421B0FBF1F000F00F0004432C8152
:1011800006B0BDE8F087000000380140C1F3080256
:101190008280704700B585B00020009001908DF8E6
:1011A00008008DF80A008DF813008DF80B0000215F
:1011B0008DF80C106A461148FFF75CFA41F23421B1
:1011C0000198884215D19DF80800042811D19DF896
:1011D0000A0002280DD19DF80C009DF80B1040EA82
:1011E00001204DF6CA61884203D1012004490860FC
:1011F00002E000200249086005B000BD0064004024
:101200000000002000BFFEE7014A024900F013B8C9
:10121000591200081800002002E008C8121F08C177
:10122000002AFAD170477047002001E001C1121F67
:10123000002AFBD170472DE9F04116460F460446BF
:10124000002503E03946B047641C6D1C2078002857
:10125000F8D12846BDE8F08170B504460D46E1B2EC
:101260000548FFF793FF00BF40210348FFF7F0FE5A
:101270000028F9D0204670BD0038014008B5FFF7BE
:1012800097FEFFF7F3FCFFF7EDFB1948FFF7BCFFF4
:101290001848FFF7B9FF1848FFF7B6FF1748FFF7E0
:1012A000B3FF1748FFF7B0FF1148FFF7ADFF15A0D8
:1012B000FFF7AAFFFFF73EFBFFF73EF900909DF80E
:1012C000000018B912A0FFF79FFF02E01CA0FFF773
:1012D0009BFFFFF79DF800909DF8000018B923A030
:1012E000FFF792FF02E02DA0FFF78EFF00BFFEE7A1
:1012F000D8140008C8130008941400080C1400083F
:1013000050140008546573742043414E200D0A00A8
:10131000283130304B622F732920506F6C6C696E0E
:1013200067207720747279626965206C6F6F7062D4
:1013300061636B203A204572726F72200D0A0000C3
:10134000283130306B622F732920506F6C6C696EBE
:1013500067207720747279626965206C6F6F7062A4
:1013600061636B203A204F4B200D0A003530304B23
:10137000622F732920506F6C6C696E672077207420
:101380007279626965206C6F6F706261636B203A7D
:10139000204572726F72200D0A000000283530302F
:1013A0006B622F732920506F6C6C696E67207720F9
:1013B000747279626965206C6F6F706261636B2013
:1013C0003A204F4B200D0A002A20202053756E44EE
:1013D00055494E4F20202020202020202020202052
:1013E00020202020202020202020202020202020FD
:1013F00020202020202020202020202020202020ED
:1014000020202020202A0D0A000000002A20202071
:10141000555341525431202C203131353230306215
:101420007073202020202020202020202020202019
:1014300020202020202020202020202020202020AC
:101440002020202020202020202A0D0A000000003B
:101450002A2020202D2D2D20666F72756D2E73751C
:101460006E6475696E6F2E706C2020202020202005
:10147000202020202020202020202020202020206C
:10148000202020202020202020202020202A0D0A7B
:10149000000000002A202020447A69656B756A6587
:1014A000207A6120757A7977616E69652053756E4F
:1014B000455642207A206D6F64756C656D205355DA
:1014C0004E2D3178785220205E5F5E202020202033
:1014D000202A0D0A000000002A2A2A2A2A2A2A2A5B
:1014E0002A2A2A2A2A2A2A2A2A2A2A2A2A2A2A2A5C
:1014F0002A2A2A2A2A2A2A2A2A2A2A2A2A2A2A2A4C
:101500002A2A2A2A2A2A2A2A2A2A2A2A2A2A2A2A3B
:101510002A2A2A2A2A2A0D0A000000003C1500085F
:10152000000000201C0000001812000858150008D8
:101530001C00002004040000281200080000000025
:101540000000000001020304010203040607080969
:0815500002040608000000007F
:0400000508000131BD
:00000001FF
